:100000007438119011AA740E119011AA74011190F4
:1000100011AA900300E493119D11B3A370F7310866
:100020002080FD758910208002800512003980F63D
:1000300011BCD2A412005780EDD2A0758BB2758D81
:10004000FAD28E12007C758B66758DBDD28E120031
:100050008630A40211C32211BC90030CE493119DBD
:10006000A370F911BC758B7C758DFFD28E12007C4C
:10007000758B99758DBBD28E12008622308FFDC292
:100080008EC2A0C28F22308FFDC28ED2A0C28F221C
:10009000F590C2A1C2A2D2A311AAC2A322F590D206
:1000A000A1C2A2D2A311AAC2A32278FF79FFD9FECE
:1000B000D8FA2278017901D9FED8FA227401119078
:1000C00011B322C2A490031AE493119D11B3A3703B
:1000D000F7310822900326E493119D11B3A370F722
:1000E00022900334E493119D11B3A370F72290037F
:1000F00042E493119D11B3A370F722900350E4934F
:10010000119D11B3A370F72274C01190E580540EB5
:10011000B4000211D4B4020211E1B4040211E1B43A
:10012000080211E1B4060211EEB40A0211EEB40C99
:090130000211EEB40E0211FB22D3
:1003000057656C636F6D652021212100476174651D
:10031000204F70656E696E672000476174652043E9
:100320006C6F73656400536C6F7473204C656674F6
:100330003A203300536C6F7473204C6566743A2016
:100340003200536C6F7473204C6566743A20310030
:0E035000536C6F7473204C6566743A20300055
:00000001FF
